{
  "contractName": "DecentralizedExchange",
  "abi": [
    {
      "inputs": [],
      "stateMutability": "nonpayable",
      "type": "constructor"
    },
    {
      "anonymous": false,
      "inputs": [
        {
          "indexed": false,
          "internalType": "address",
          "name": "userAddress",
          "type": "address"
        },
        {
          "indexed": false,
          "internalType": "address",
          "name": "tokenAddress",
          "type": "address"
        },
        {
          "indexed": false,
          "internalType": "uint256",
          "name": "amount",
          "type": "uint256"
        }
      ],
      "name": "LiquidityAdded",
      "type": "event"
    },
    {
      "anonymous": false,
      "inputs": [
        {
          "indexed": false,
          "internalType": "address",
          "name": "userAddress",
          "type": "address"
        },
        {
          "indexed": false,
          "internalType": "address",
          "name": "tokenAddress",
          "type": "address"
        },
        {
          "indexed": false,
          "internalType": "uint256",
          "name": "amount",
          "type": "uint256"
        }
      ],
      "name": "LiquidityRemoved",
      "type": "event"
    },
    {
      "anonymous": false,
      "inputs": [
        {
          "indexed": false,
          "internalType": "address",
          "name": "userAddress",
          "type": "address"
        },
        {
          "indexed": false,
          "internalType": "address",
          "name": "token0Address",
          "type": "address"
        },
        {
          "indexed": false,
          "internalType": "address",
          "name": "token1Address",
          "type": "address"
        },
        {
          "indexed": false,
          "internalType": "uint256",
          "name": "amount0",
          "type": "uint256"
        },
        {
          "indexed": false,
          "internalType": "uint256",
          "name": "amount1",
          "type": "uint256"
        }
      ],
      "name": "LiquiditySwaped",
      "type": "event"
    },
    {
      "inputs": [],
      "name": "admin",
      "outputs": [
        {
          "internalType": "address",
          "name": "",
          "type": "address"
        }
      ],
      "stateMutability": "view",
      "type": "function"
    },
    {
      "inputs": [],
      "name": "contractAddress",
      "outputs": [
        {
          "internalType": "address",
          "name": "",
          "type": "address"
        }
      ],
      "stateMutability": "view",
      "type": "function"
    },
    {
      "inputs": [
        {
          "internalType": "address",
          "name": "",
          "type": "address"
        }
      ],
      "name": "liquidityPool",
      "outputs": [
        {
          "internalType": "uint256",
          "name": "",
          "type": "uint256"
        }
      ],
      "stateMutability": "view",
      "type": "function"
    },
    {
      "inputs": [
        {
          "internalType": "uint256",
          "name": "",
          "type": "uint256"
        }
      ],
      "name": "poolExchange",
      "outputs": [
        {
          "internalType": "address",
          "name": "userAddress",
          "type": "address"
        },
        {
          "internalType": "address",
          "name": "tokenAddress",
          "type": "address"
        },
        {
          "internalType": "uint256",
          "name": "amount",
          "type": "uint256"
        }
      ],
      "stateMutability": "view",
      "type": "function"
    },
    {
      "inputs": [
        {
          "internalType": "address",
          "name": "",
          "type": "address"
        },
        {
          "internalType": "uint256",
          "name": "",
          "type": "uint256"
        }
      ],
      "name": "poolMapping",
      "outputs": [
        {
          "internalType": "address",
          "name": "userAddress",
          "type": "address"
        },
        {
          "internalType": "address",
          "name": "tokenAddress",
          "type": "address"
        },
        {
          "internalType": "uint256",
          "name": "amount",
          "type": "uint256"
        }
      ],
      "stateMutability": "view",
      "type": "function"
    },
    {
      "inputs": [
        {
          "internalType": "address",
          "name": "",
          "type": "address"
        },
        {
          "internalType": "uint256",
          "name": "",
          "type": "uint256"
        }
      ],
      "name": "tokenUserMap",
      "outputs": [
        {
          "internalType": "address",
          "name": "",
          "type": "address"
        }
      ],
      "stateMutability": "view",
      "type": "function"
    },
    {
      "inputs": [
        {
          "internalType": "address",
          "name": "",
          "type": "address"
        }
      ],
      "name": "userPool",
      "outputs": [
        {
          "internalType": "uint256",
          "name": "",
          "type": "uint256"
        }
      ],
      "stateMutability": "view",
      "type": "function"
    },
    {
      "inputs": [
        {
          "internalType": "address",
          "name": "",
          "type": "address"
        },
        {
          "internalType": "address",
          "name": "",
          "type": "address"
        }
      ],
      "name": "userTokenAmountMap",
      "outputs": [
        {
          "internalType": "uint256",
          "name": "",
          "type": "uint256"
        }
      ],
      "stateMutability": "view",
      "type": "function"
    },
    {
      "inputs": [
        {
          "internalType": "address",
          "name": "",
          "type": "address"
        },
        {
          "internalType": "uint256",
          "name": "",
          "type": "uint256"
        }
      ],
      "name": "userTokenMap",
      "outputs": [
        {
          "internalType": "address",
          "name": "",
          "type": "address"
        }
      ],
      "stateMutability": "view",
      "type": "function"
    },
    {
      "inputs": [
        {
          "internalType": "address",
          "name": "_accountAddress",
          "type": "address"
        },
        {
          "internalType": "address",
          "name": "_tokenAddress",
          "type": "address"
        },
        {
          "internalType": "uint256",
          "name": "_amount",
          "type": "uint256"
        }
      ],
      "name": "addLiquidity",
      "outputs": [],
      "stateMutability": "nonpayable",
      "type": "function"
    },
    {
      "inputs": [
        {
          "internalType": "address",
          "name": "_tokenAddress",
          "type": "address"
        },
        {
          "internalType": "uint256",
          "name": "_amount",
          "type": "uint256"
        }
      ],
      "name": "removeLiquidity",
      "outputs": [],
      "stateMutability": "nonpayable",
      "type": "function"
    },
    {
      "inputs": [
        {
          "internalType": "address",
          "name": "_srcCurrency",
          "type": "address"
        },
        {
          "internalType": "address",
          "name": "_destCurrency",
          "type": "address"
        },
        {
          "internalType": "address",
          "name": "_accountAddress",
          "type": "address"
        },
        {
          "internalType": "uint256",
          "name": "_amount0",
          "type": "uint256"
        },
        {
          "internalType": "uint256",
          "name": "_amount1",
          "type": "uint256"
        }
      ],
      "name": "swapLiquidity",
      "outputs": [],
      "stateMutability": "nonpayable",
      "type": "function"
    },
    {
      "inputs": [
        {
          "internalType": "uint256",
          "name": "id",
          "type": "uint256"
        }
      ],
      "name": "getTokenList",
      "outputs": [
        {
          "internalType": "address[]",
          "name": "",
          "type": "address[]"
        }
      ],
      "stateMutability": "view",
      "type": "function"
    },
    {
      "inputs": [
        {
          "internalType": "address",
          "name": "_tokenAddress",
          "type": "address"
        },
        {
          "internalType": "address",
          "name": "_accountAddress",
          "type": "address"
        }
      ],
      "name": "getLiquidityAmount",
      "outputs": [
        {
          "internalType": "uint256",
          "name": "",
          "type": "uint256"
        }
      ],
      "stateMutability": "view",
      "type": "function"
    },
    {
      "inputs": [
        {
          "internalType": "address",
          "name": "_accountAddress",
          "type": "address"
        }
      ],
      "name": "getUserTokenMapping",
      "outputs": [
        {
          "internalType": "address[]",
          "name": "",
          "type": "address[]"
        }
      ],
      "stateMutability": "view",
      "type": "function"
    },
    {
      "inputs": [
        {
          "internalType": "address",
          "name": "_tokenAddress",
          "type": "address"
        }
      ],
      "name": "getTokenUserMapping",
      "outputs": [
        {
          "internalType": "address[]",
          "name": "",
          "type": "address[]"
        }
      ],
      "stateMutability": "view",
      "type": "function"
    },
    {
      "inputs": [
        {
          "internalType": "address",
          "name": "_tokenAddress",
          "type": "address"
        }
      ],
      "name": "totalLiquidityPool",
      "outputs": [
        {
          "internalType": "uint256",
          "name": "",
          "type": "uint256"
        }
      ],
      "stateMutability": "view",
      "type": "function"
    },
    {
      "inputs": [
        {
          "internalType": "address",
          "name": "_accountAddress",
          "type": "address"
        }
      ],
      "name": "getUserLiquidityPool",
      "outputs": [
        {
          "internalType": "string",
          "name": "",
          "type": "string"
        },
        {
          "internalType": "address",
          "name": "",
          "type": "address"
        },
        {
          "internalType": "address",
          "name": "",
          "type": "address"
        },
        {
          "internalType": "uint256",
          "name": "",
          "type": "uint256"
        }
      ],
      "stateMutability": "view",
      "type": "function"
    }
  ],
  "bytecode": "0x608060405234801561001057600080fd5b5060008054600160a060020a0319908116331790915560018054909116301790556114d5806100406000396000f3fe608060405234801561001057600080fd5b5060043610610133576000357c010000000000000000000000000000000000000000000000000000000090048063a201ccf6116100bf578063c5e18d141161008e578063c5e18d1414610497578063e4a76726146104bd578063efea81fa146104f3578063f6b4dfb414610535578063f851a4401461053d57610133565b8063a201ccf6146103e9578063af97919d14610417578063b64f7abf14610443578063c0806db61461047157610133565b806341b63bd81161010657806341b63bd81461027d5780637d22ea381461029a57806380028685146102c6578063922f73f71461039d57806397434ce7146103c357610133565b8063096b8843146101385780632f2dbbea1461017857806335a587d6146101c0578063414d1b5114610236575b600080fd5b6101666004803603604081101561014e57600080fd5b50600160a060020a0381358116916020013516610545565b60408051918252519081900360200190f35b6101a46004803603604081101561018e57600080fd5b50600160a060020a038135169060200135610571565b60408051600160a060020a039092168252519081900360200190f35b6101e6600480360360208110156101d657600080fd5b5035600160a060020a03166105a6565b60408051602080825283518183015283519192839290830191858101910280838360005b8381101561022257818101518382015260200161020a565b505050509050019250505060405180910390f35b6102536004803603602081101561024c57600080fd5b5035610644565b60408051600160a060020a0394851681529290931660208301528183015290519081900360600190f35b6101e66004803603602081101561029357600080fd5b5035610681565b610253600480360360408110156102b057600080fd5b50600160a060020a0381351690602001356106fa565b6102ec600480360360208110156102dc57600080fd5b5035600160a060020a0316610744565b604051808060200185600160a060020a0316600160a060020a0316815260200184600160a060020a0316600160a060020a03168152602001838152602001828103825286818151815260200191508051906020019080838360005b8381101561035f578181015183820152602001610347565b50505050905090810190601f16801561038c5780820380516001836020036101000a031916815260200191505b509550505050505060405180910390f35b6101e6600480360360208110156103b357600080fd5b5035600160a060020a03166108a0565b610166600480360360208110156103d957600080fd5b5035600160a060020a0316610914565b610415600480360360408110156103ff57600080fd5b50600160a060020a038135169060200135610926565b005b6101a46004803603604081101561042d57600080fd5b50600160a060020a038135169060200135610bb1565b6101666004803603604081101561045957600080fd5b50600160a060020a0381358116916020013516610bca565b6101666004803603602081101561048757600080fd5b5035600160a060020a0316610be7565b610166600480360360208110156104ad57600080fd5b5035600160a060020a0316610bf9565b610415600480360360608110156104d357600080fd5b50600160a060020a03813581169160208101359091169060400135610c14565b610415600480360360a081101561050957600080fd5b50600160a060020a03813581169160208101358216916040820135169060608101359060800135610f4c565b6101a46112b3565b6101a46112c2565b600160a060020a0380821660009081526009602090815260408083209386168352929052205492915050565b600b602052816000526040600020818154811061058a57fe5b600091825260209091200154600160a060020a03169150829050565b600160a060020a0381166000908152600b6020526040812054606091901561063d57600160a060020a0383166000908152600b60209081526040918290208054835181840281018401909452808452909183018282801561063057602002820191906000526020600020905b8154600160a060020a03168152600190910190602001808311610612575b505050505091505061063f565b505b919050565b6007818154811061065157fe5b6000918252602090912060039091020180546001820154600290920154600160a060020a03918216935091169083565b60606006828154811061069057fe5b906000526020600020018054806020026020016040519081016040528092919081815260200182805480156106ee57602002820191906000526020600020905b8154600160a060020a031681526001909101906020018083116106d0575b50505050509050919050565b6008602052816000526040600020818154811061071357fe5b6000918252602090912060039091020180546001820154600290920154600160a060020a0391821694509116915083565b606060008080805b6007548110156108585785600160a060020a03166007828154811061076d57fe5b6000918252602090912060039091020154600160a060020a03161415610850576007818154811061079a57fe5b600091825260209091206003909102015460078054600160a060020a0390921691839081106107c557fe5b906000526020600020906003020160010160009054906101000a9004600160a060020a0316600783815481106107f757fe5b9060005260206000209060030201600201546040518060400160405280601c81526020017f54686973205573657220697320696e2061637469766520737461746500000000815250929190945094509450945050610899565b60010161074c565b505060408051808201909152601881527f546869732055736572206973206e6f742070726573656e7400000000000000006020820152925060009150819050805b9193509193565b600160a060020a0381166000908152600a60209081526040918290208054835181840281018401909452808452606093928301828280156106ee57602002820191906000526020600020908154600160a060020a031681526001909101906020018083116106d05750505050509050919050565b60056020526000908152604090205481565b6000811161097e576040805160e560020a62461bcd02815260206004820152600f60248201527f43616e6e6f742072656d6f766520300000000000000000000000000000000000604482015290519081900360640190fd5b336000908152600960209081526040808320600160a060020a0386168452909152902054818110156109fa576040805160e560020a62461bcd02815260206004820152601660248201527f496e73756666696369656e74204c697175696469747900000000000000000000604482015290519081900360640190fd5b610a0a818363ffffffff6112d116565b60028054600160a060020a031916600160a060020a03868116919091178255336000908152600560209081526040808320869055935484517f095ea7b30000000000000000000000000000000000000000000000000000000081523060048201526024810189905294519596509092169363095ea7b39360448082019493918390030190829087803b158015610a9f57600080fd5b505af1158015610ab3573d6000803e3d6000fd5b505050506040513d6020811015610ac957600080fd5b5050600254604080517fa9059cbb000000000000000000000000000000000000000000000000000000008152336004820152602481018590529051600160a060020a039092169163a9059cbb916044808201926020929091908290030181600087803b158015610b3857600080fd5b505af1158015610b4c573d6000803e3d6000fd5b505050506040513d6020811015610b6257600080fd5b505060408051338152600160a060020a038516602082015280820184905290517f983e86fda8e7b1e2eae380201830eaf1cac55772e8e39583da349865e81788639181900360600190a1505050565b600a602052816000526040600020818154811061058a57fe5b600960209081526000928352604080842090915290825290205481565b60046020526000908152604090205481565b600160a060020a031660009081526004602052604090205490565b600160a060020a038216600090815260046020526040902054610c3d908263ffffffff6112e316565b600160a060020a0380841660008181526004602081815260408084209690965560028054600160a060020a0319169094179384905585517f23b872dd0000000000000000000000000000000000000000000000000000000081528986169281019290925230602483015260448201879052945192909316936323b872dd936064808201949293918390030190829087803b158015610cda57600080fd5b505af1158015610cee573d6000803e3d6000fd5b505050506040513d6020811015610d0457600080fd5b5050600160a060020a03808416600090815260096020908152604080832093861683529290522054610ea65760408051808201909152600160a060020a0380841682528416602082015260068054600181018255600091909152610d8e917ff652222313e28459528d920b65115c16c04f3efc82aaedc97be59f3f377c0d3f909101906002611413565b50600160a060020a038281166000818152600b60209081526040808320805460018082018355918552838520018054600160a060020a03199081168b891690811790925583516060810185528281528086018881528186018b8152600780548088018255908a5292517fa66cc928b5edb82af9bd49922954155ab7b0942694bea4ce44661d9a8736c688600390940293840180548616918d1691909117905590517fa66cc928b5edb82af9bd49922954155ab7b0942694bea4ce44661d9a8736c68983018054851691909b161790995597517fa66cc928b5edb82af9bd49922954155ab7b0942694bea4ce44661d9a8736c68a909801979097558452600a835290832080549182018155835291200180549092161790555b600160a060020a03808416600090815260096020908152604080832093861683529290522054610edc908263ffffffff6112e316565b600160a060020a038085166000818152600960209081526040808320948816808452948252918290209490945580519182529281019190915280820183905290517f9d278c56ba6dc86a12eefe6b43112bd6e06648eb4ec0b950ee2d783d40e2acb49181900360600190a1505050565b60008211610fa4576040805160e560020a62461bcd02815260206004820152601260248201527f43616e6e6f74204c697175696461746520300000000000000000000000000000604482015290519081900360640190fd5b600160a060020a03841660009081526004602052604090205482811015611015576040805160e560020a62461bcd02815260206004820152601d60248201527f496e73756666696369656e74204c697175696469747920537570706c79000000604482015290519081900360640190fd5b60028054600160a060020a031916600160a060020a038881169190911791829055604080517f095ea7b3000000000000000000000000000000000000000000000000000000008152306004820152602481018790529051929091169163095ea7b3916044808201926020929091908290030181600087803b15801561109957600080fd5b505af11580156110ad573d6000803e3d6000fd5b505050506040513d60208110156110c357600080fd5b5050600254604080517f23b872dd000000000000000000000000000000000000000000000000000000008152600160a060020a03878116600483015230602483015260448201879052915191909216916323b872dd9160648083019260209291908290030181600087803b15801561113a57600080fd5b505af115801561114e573d6000803e3d6000fd5b505050506040513d602081101561116457600080fd5b505060038054600160a060020a031916600160a060020a038781169190911791829055604080517fa9059cbb0000000000000000000000000000000000000000000000000000000081528783166004820152602481018690529051929091169163a9059cbb916044808201926020929091908290030181600087803b1580156111ec57600080fd5b505af1158015611200573d6000803e3d6000fd5b505050506040513d602081101561121657600080fd5b506112299050818363ffffffff6112d116565b600160a060020a038616600090815260046020526040902081905590506112548686868686866112f9565b60408051338152600160a060020a038089166020830152871681830152606081018590526080810184905290517ff871059fb9dbf8d0199ed7fe27cd80b02b93f68106efe781bde1eaf9453a74c19181900360a00190a1505050505050565b600154600160a060020a031681565b600054600160a060020a031681565b6000828211156112dd57fe5b50900390565b6000828201838110156112f257fe5b9392505050565b60005b60075481101561140a57600160a060020a038086166000908152600960209081526040808320938b168352929052908120549083828161133857fe5b600160a060020a03808a166000908152600960209081526040808320938f16835292905220549190049150868202908683029061137b908363ffffffff6112d116565b600160a060020a038a81166000908152600960209081526040808320938f168352929052208190556113ad90826112e3565b600960008b600160a060020a0316600160a060020a0316815260200190815260200160002060008d600160a060020a0316600160a060020a03168152602001908152602001600020819055505050505080806001019150506112fc565b50505050505050565b828054828255906000526020600020908101928215611468579160200282015b828111156114685782518254600160a060020a031916600160a060020a03909116178255602090920191600190910190611433565b50611474929150611478565b5090565b61149c91905b80821115611474578054600160a060020a031916815560010161147e565b9056fea26469706673582212203c371bc1ca333622a950d2d3072d7f6dc8d458f06b86bbc35e8641e64cc5066464736f6c63430006010033",
  "source": "\npragma solidity ^0.6.0;\n\ninterface IERC20 {\n    \n    function totalSupply() external view returns (uint256);\n    function balanceOf(address account) external view returns (uint256);\n    function allowance(address owner, address spender) external view returns (uint256);\n    function transfer(address recipient, uint256 amount) external returns (bool);\n    function approve(address spender, uint256 amount) external returns (bool);\n    function transferFrom(address sender, address recipient, uint256 amount) external returns (bool);\n    \n    event Transfer(address indexed from, address indexed to, uint256 value);\n    event Approval(address indexed owner, address indexed spender, uint256 value);\n}\n\nlibrary SafeMath {\n    function sub(uint256 a, uint256 b) internal pure returns (uint256) {\n      assert(b <= a);\n      return a - b;\n    }\n\n    function add(uint256 a, uint256 b) internal pure returns (uint256) {\n      uint256 c = a + b;\n      assert(c >= a);\n      return c;\n    }\n}\n\ncontract DecentralizedExchange {\n    \n    using SafeMath for uint256;\n    \n    address public admin;\n    address public contractAddress;\n    IERC20 private liquidityCurrency0;\n    IERC20 private liquidityCurrency1;\n    mapping (address => uint) public liquidityPool;\n    mapping (address => uint) public userPool;\n    \n    address[][] private userTokenAddress;\n    \n    // Events\n    event LiquidityAdded(address userAddress, address tokenAddress, uint amount);\n    event LiquiditySwaped(address userAddress, address token0Address, address token1Address, uint amount0, uint amount1);\n    event LiquidityRemoved(address userAddress, address tokenAddress, uint amount);\n    \n    struct UserPoolExchange{\n        address userAddress;\n        address tokenAddress;\n        uint amount;\n    }\n    \n    UserPoolExchange[] public poolExchange;\n    \n    mapping(address => UserPoolExchange[]) public poolMapping;\n    mapping(address => mapping (address => uint256)) public userTokenAmountMap;\n    mapping(address => address[]) public userTokenMap;\n    mapping(address => address[]) public tokenUserMap;\n\n    constructor() public {\n        admin  = msg.sender;\n        contractAddress = address(this);\n    }\n    \n    modifier shouldBeAdmin {\n        if (msg.sender != admin)\n            revert();\n        _;\n    }\n    \n    modifier onlyContractAccess(){\n        require(contractAddress == address(this));\n        _;\n    }\n    \n    function addLiquidity(address _accountAddress, address _tokenAddress, uint _amount) public {\n        liquidityPool[_tokenAddress] = liquidityPool[_tokenAddress].add(_amount);\n        liquidityCurrency0 = IERC20(_tokenAddress);\n        liquidityCurrency0.transferFrom(_accountAddress, address(this), _amount);\n        if (userTokenAmountMap[_accountAddress][_tokenAddress] <= 0) {\n            userTokenAddress.push([_tokenAddress, _accountAddress]);\n            tokenUserMap[_tokenAddress].push(_accountAddress);\n            poolExchange.push(UserPoolExchange({userAddress: _accountAddress, tokenAddress: _tokenAddress, amount: _amount}));\n            userTokenMap[_accountAddress].push(_tokenAddress);\n        }\n        userTokenAmountMap[_accountAddress][_tokenAddress]  = userTokenAmountMap[_accountAddress][_tokenAddress].add(_amount);\n        emit LiquidityAdded(_accountAddress, _tokenAddress, _amount);\n    }\n    \n           \n    function _addUserPool(address _tokenAddress, uint _amount, address _accountAddress) private {\n\n    }\n\n    function removeLiquidity(address _tokenAddress, uint _amount) public {\n        require(_amount > 0, \"Cannot remove 0\");\n        uint totalUserPool = userTokenAmountMap[msg.sender][_tokenAddress];\n        require(totalUserPool >= _amount, \"Insufficient Liquidity\");\n        totalUserPool = totalUserPool.sub(_amount);\n        liquidityCurrency0 = IERC20(_tokenAddress);\n        userPool[msg.sender] = totalUserPool;\n        liquidityCurrency0.approve(address(this), _amount);\n        liquidityCurrency0.transfer(msg.sender, _amount);\n        emit LiquidityRemoved(msg.sender, _tokenAddress, _amount);\n    }\n    \n    function swapLiquidity(address _srcCurrency, address _destCurrency, address _accountAddress, uint _amount0, uint _amount1) public {\n        require(_amount0 > 0, \"Cannot Liquidate 0\");\n        uint totalSupply = liquidityPool[_destCurrency];\n        require(totalSupply >= _amount0, \"Insufficient Liquidity Supply\");\n        liquidityCurrency0 = IERC20(_srcCurrency);\n        liquidityCurrency0.approve(address(this), _amount0);\n        liquidityCurrency0.transferFrom(_accountAddress, address(this), _amount0);\n        liquidityCurrency1 = IERC20(_destCurrency);\n        liquidityCurrency1.transfer(_accountAddress, _amount1);\n        totalSupply = totalSupply.sub(_amount1);\n        liquidityPool[_destCurrency] = totalSupply;\n        updatePool(_srcCurrency, _destCurrency, _accountAddress, _amount0, _amount1, totalSupply);\n        emit LiquiditySwaped(msg.sender, _srcCurrency, _destCurrency, _amount0, _amount1);\n        \n    }\n    \n    function updatePool(address _srcCurrency, address _destCurrency, address _accountAddress, uint _amount0, uint _amount1, uint totalSupply) internal {\n        for (uint i = 0; i < poolExchange.length; i++) {\n            uint totalUserPool = userTokenAmountMap[_accountAddress][_srcCurrency];\n            uint poolPercentage = (totalUserPool/totalSupply);\n            uint poolPercentage0 = _amount0*poolPercentage;\n            uint poolPercentage1 = _amount1*poolPercentage;\n            userTokenAmountMap[_accountAddress][_destCurrency] = userTokenAmountMap[_accountAddress][_srcCurrency].sub(poolPercentage0);\n            userTokenAmountMap[_accountAddress][_srcCurrency] = userTokenAmountMap[_accountAddress][_destCurrency].add(poolPercentage1);\n        }\n    }\n    \n    function getTokenList(uint id) public view returns (address[] memory) {\n        return userTokenAddress[id];\n    }\n    \n    function getLiquidityAmount(address _tokenAddress, address _accountAddress) public view returns (uint) {\n            return userTokenAmountMap[_accountAddress][_tokenAddress];\n    }\n    \n    function getUserTokenMapping(address _accountAddress) public view returns (address[] memory){\n        return userTokenMap[_accountAddress];\n    }\n    \n    function getTokenUserMapping(address _tokenAddress) public view returns (address[] memory){\n        for (uint i = 0; i < tokenUserMap[_tokenAddress].length; i++){\n           return tokenUserMap[_tokenAddress];\n        }\n    }\n    \n    function totalLiquidityPool(address _tokenAddress) public view returns (uint){\n        return liquidityPool[_tokenAddress];\n    }\n    \n    function getUserLiquidityPool(address _accountAddress) public view returns(string memory, address, address, uint){\n        for (uint i = 0; i < poolExchange.length; i++) {\n            if (poolExchange[i].userAddress == _accountAddress) {\n                return (\"This User is in active state\", poolExchange[i].userAddress, poolExchange[i].tokenAddress, poolExchange[i].amount);\n            }\n        }\n        return (\"This User is not present\", 0x0000000000000000000000000000000000000000, 0x0000000000000000000000000000000000000000, 0);\n    }\n}\n\n",
  "sourcePath": "/Users/akshaypatil/Documents/akshay/gitrepo/decentralized-exchange-contract/contracts/DecentralizedExchange.sol",
  "compiler": {
    "name": "solc",
    "version": "0.6.1+commit.e6f7d5a4.Emscripten.clang"
  },
  "schemaVersion": "3.3.1",
  "updatedAt": "2021-06-01T17:14:40.856Z",
  "devdoc": {
    "methods": {}
  },
  "userdoc": {
    "methods": {}
  }
}